{
  "_format": "hh-sol-artifact-1",
  "contractName": "Escrow",
  "sourceName": "contracts/Escrow.sol",
  "abi": [
    {
      "inputs": [
        {
          "internalType": "uint256",
          "name": "_value",
          "type": "uint256"
        }
      ],
      "stateMutability": "nonpayable",
      "type": "constructor"
    },
    {
      "anonymous": false,
      "inputs": [
        {
          "indexed": false,
          "internalType": "address",
          "name": "from",
          "type": "address"
        },
        {
          "indexed": false,
          "internalType": "uint256",
          "name": "value",
          "type": "uint256"
        }
      ],
      "name": "Buy",
      "type": "event"
    },
    {
      "anonymous": false,
      "inputs": [],
      "name": "Finish",
      "type": "event"
    },
    {
      "anonymous": false,
      "inputs": [],
      "name": "Sent",
      "type": "event"
    },
    {
      "inputs": [],
      "name": "addMoreBalance",
      "outputs": [],
      "stateMutability": "payable",
      "type": "function"
    },
    {
      "inputs": [],
      "name": "balance",
      "outputs": [
        {
          "internalType": "uint256",
          "name": "",
          "type": "uint256"
        }
      ],
      "stateMutability": "view",
      "type": "function"
    },
    {
      "inputs": [],
      "name": "buy",
      "outputs": [],
      "stateMutability": "payable",
      "type": "function"
    },
    {
      "inputs": [],
      "name": "buyDate",
      "outputs": [
        {
          "internalType": "uint256",
          "name": "",
          "type": "uint256"
        }
      ],
      "stateMutability": "view",
      "type": "function"
    },
    {
      "inputs": [],
      "name": "buyer",
      "outputs": [
        {
          "internalType": "address payable",
          "name": "",
          "type": "address"
        }
      ],
      "stateMutability": "view",
      "type": "function"
    },
    {
      "inputs": [],
      "name": "buyerOk",
      "outputs": [
        {
          "internalType": "bool",
          "name": "",
          "type": "bool"
        }
      ],
      "stateMutability": "view",
      "type": "function"
    },
    {
      "inputs": [
        {
          "internalType": "uint256",
          "name": "_value",
          "type": "uint256"
        }
      ],
      "name": "changeValue",
      "outputs": [],
      "stateMutability": "nonpayable",
      "type": "function"
    },
    {
      "inputs": [],
      "name": "confirmProduct",
      "outputs": [],
      "stateMutability": "nonpayable",
      "type": "function"
    },
    {
      "inputs": [],
      "name": "getValue",
      "outputs": [
        {
          "internalType": "uint256",
          "name": "",
          "type": "uint256"
        }
      ],
      "stateMutability": "view",
      "type": "function"
    },
    {
      "inputs": [],
      "name": "refund",
      "outputs": [],
      "stateMutability": "nonpayable",
      "type": "function"
    },
    {
      "inputs": [],
      "name": "report",
      "outputs": [],
      "stateMutability": "nonpayable",
      "type": "function"
    },
    {
      "inputs": [],
      "name": "seller",
      "outputs": [
        {
          "internalType": "address payable",
          "name": "",
          "type": "address"
        }
      ],
      "stateMutability": "view",
      "type": "function"
    },
    {
      "inputs": [],
      "name": "sellerOk",
      "outputs": [
        {
          "internalType": "bool",
          "name": "",
          "type": "bool"
        }
      ],
      "stateMutability": "view",
      "type": "function"
    },
    {
      "inputs": [],
      "name": "sendProduct",
      "outputs": [],
      "stateMutability": "nonpayable",
      "type": "function"
    },
    {
      "inputs": [],
      "name": "startDate",
      "outputs": [
        {
          "internalType": "uint256",
          "name": "",
          "type": "uint256"
        }
      ],
      "stateMutability": "view",
      "type": "function"
    }
  ],
  "bytecode": "0x60806040523480156200001157600080fd5b5060405162001e1b38038062001e1b8339818101604052810190620000379190620000ea565b33600160006101000a81548173ffffffffffffffffffffffffffffffffffffffff021916908373ffffffffffffffffffffffffffffffffffffffff16021790555080600481905550600060058190555060006003819055506000600660006101000a81548160ff0219169083151502179055506000600660016101000a81548160ff02191690831515021790555042600281905550506200013a565b600081519050620000e48162000120565b92915050565b600060208284031215620000fd57600080fd5b60006200010d84828501620000d3565b91505092915050565b6000819050919050565b6200012b8162000116565b81146200013757600080fd5b50565b611cd1806200014a6000396000f3fe6080604052600436106100e85760003560e01c806353496a751161008a578063a91958de11610059578063a91958de14610234578063b69ef8a81461025f578063c5b0e6fb1461028a578063f965e32e146102b5576100e8565b806353496a75146101bd578063590e1ae3146101e85780637150d8ae146101ff578063a6f2ae3a1461022a576100e8565b80632606a10b116100c65780632606a10b1461016e5780632d293b9f146101855780633c5cb30b1461018f578063522253cc146101a6576100e8565b806308551a53146100ed5780630b97bc86146101185780632096525514610143575b600080fd5b3480156100f957600080fd5b506101026102de565b60405161010f91906114ea565b60405180910390f35b34801561012457600080fd5b5061012d610304565b60405161013a9190611749565b60405180910390f35b34801561014f57600080fd5b5061015861030a565b6040516101659190611749565b60405180910390f35b34801561017a57600080fd5b50610183610314565b005b61018d61050d565b005b34801561019b57600080fd5b506101a46106f7565b005b3480156101b257600080fd5b506101bb6108c3565b005b3480156101c957600080fd5b506101d26109cc565b6040516101df919061152e565b60405180910390f35b3480156101f457600080fd5b506101fd6109df565b005b34801561020b57600080fd5b50610214610b86565b60405161022191906114ea565b60405180910390f35b610232610baa565b005b34801561024057600080fd5b50610249610eb9565b6040516102569190611749565b60405180910390f35b34801561026b57600080fd5b50610274610ebf565b6040516102819190611749565b60405180910390f35b34801561029657600080fd5b5061029f610ec5565b6040516102ac919061152e565b60405180910390f35b3480156102c157600080fd5b506102dc60048036038101906102d79190611255565b610ed8565b005b600160009054906101000a900473ffffffffffffffffffffffffffffffffffffffff1681565b60025481565b6000600454905090565b60008054906101000a900473ffffffffffffffffffffffffffffffffffffffff1673ffffffffffffffffffffffffffffffffffffffff163373ffffffffffffffffffffffffffffffffffffffff16146103a2576040517f08c379a000000000000000000000000000000000000000000000000000000000815260040161039990611629565b60405180910390fd5b60001515600660019054906101000a900460ff161515146103f8576040517f08c379a00000000000000000000000000000000000000000000000000000000081526004016103ef906116c9565b60405180910390fd5b62278d006003546104099190611775565b421161044a576040517f08c379a000000000000000000000000000000000000000000000000000000000815260040161044190611649565b60405180910390fd5b60008054906101000a900473ffffffffffffffffffffffffffffffffffffffff1673ffffffffffffffffffffffffffffffffffffffff166108fc6005549081150290604051600060405180830381858888f193505050501561050b57600060058190555060008060006101000a81548173ffffffffffffffffffffffffffffffffffffffff021916908373ffffffffffffffffffffffffffffffffffffffff1602179055506000600660016101000a81548160ff0219169083151502179055505b565b60001515600660019054906101000a900460ff16151514610563576040517f08c379a000000000000000000000000000000000000000000000000000000000815260040161055a90611589565b60405180910390fd5b60001515600660009054906101000a900460ff161515146105b9576040517f08c379a00000000000000000000000000000000000000000000000000000000081526004016105b090611689565b60405180910390fd5b60008054906101000a900473ffffffffffffffffffffffffffffffffffffffff1673ffffffffffffffffffffffffffffffffffffffff163373ffffffffffffffffffffffffffffffffffffffff1614610647576040517f08c379a000000000000000000000000000000000000000000000000000000000815260040161063e90611629565b60405180910390fd5b6000341161068a576040517f08c379a000000000000000000000000000000000000000000000000000000000815260040161068190611609565b60405180910390fd5b6004546005543461069b9190611775565b10156106dc576040517f08c379a00000000000000000000000000000000000000000000000000000000081526004016106d390611729565b60405180910390fd5b34600560008282546106ee9190611775565b92505081905550565b60001515600660019054906101000a900460ff1615151461074d576040517f08c379a000000000000000000000000000000000000000000000000000000000815260040161074490611589565b60405180910390fd5b60001515600660009054906101000a900460ff161515146107a3576040517f08c379a000000000000000000000000000000000000000000000000000000000815260040161079a90611689565b60405180910390fd5b600160009054906101000a900473ffffffffffffffffffffffffffffffffffffffff1673ffffffffffffffffffffffffffffffffffffffff163373ffffffffffffffffffffffffffffffffffffffff1614610833576040517f08c379a000000000000000000000000000000000000000000000000000000000815260040161082a906116e9565b60405180910390fd5b600454600554101561087a576040517f08c379a000000000000000000000000000000000000000000000000000000000815260040161087190611669565b60405180910390fd5b6001600660016101000a81548160ff0219169083151502179055507f407310595001f40cc5d78b385eeeb8b69fa22f4c4df5df2d85d0469a7e227c8d60405160405180910390a1565b60008054906101000a900473ffffffffffffffffffffffffffffffffffffffff1673ffffffffffffffffffffffffffffffffffffffff163373ffffffffffffffffffffffffffffffffffffffff1614610951576040517f08c379a000000000000000000000000000000000000000000000000000000000815260040161094890611629565b60405180910390fd5b60011515600660019054906101000a900460ff161515146109a7576040517f08c379a000000000000000000000000000000000000000000000000000000000815260040161099e906115e9565b60405180910390fd5b6001600660006101000a81548160ff0219169083151502179055506109ca6110ad565b565b600660009054906101000a900460ff1681565b600160009054906101000a900473ffffffffffffffffffffffffffffffffffffffff1673ffffffffffffffffffffffffffffffffffffffff163373ffffffffffffffffffffffffffffffffffffffff1614610a6f576040517f08c379a0000000000000000000000000000000000000000000000000000000008152600401610a66906116e9565b60405180910390fd5b600060055411610ab4576040517f08c379a0000000000000000000000000000000000000000000000000000000008152600401610aab90611569565b60405180910390fd5b60008060009054906101000a900473ffffffffffffffffffffffffffffffffffffffff1673ffffffffffffffffffffffffffffffffffffffff166108fc6005549081150290604051600060405180830381858888f1935050505090508015610b8357600060058190555060008060006101000a81548173ffffffffffffffffffffffffffffffffffffffff021916908373ffffffffffffffffffffffffffffffffffffffff16021790555060006003819055506000600660016101000a81548160ff0219169083151502179055505b50565b60008054906101000a900473ffffffffffffffffffffffffffffffffffffffff1681565b60001515600660019054906101000a900460ff16151514610c00576040517f08c379a0000000000000000000000000000000000000000000000000000000008152600401610bf790611589565b60405180910390fd5b60001515600660009054906101000a900460ff16151514610c56576040517f08c379a0000000000000000000000000000000000000000000000000000000008152600401610c4d90611689565b60405180910390fd5b60003411610c99576040517f08c379a0000000000000000000000000000000000000000000000000000000008152600401610c9090611609565b60405180910390fd5b600454341015610cde576040517f08c379a0000000000000000000000000000000000000000000000000000000008152600401610cd590611709565b60405180910390fd5b600073ffffffffffffffffffffffffffffffffffffffff1660008054906101000a900473ffffffffffffffffffffffffffffffffffffffff1673ffffffffffffffffffffffffffffffffffffffff1614610d6d576040517f08c379a0000000000000000000000000000000000000000000000000000000008152600401610d64906115c9565b60405180910390fd5b3373ffffffffffffffffffffffffffffffffffffffff16600160009054906101000a900473ffffffffffffffffffffffffffffffffffffffff1673ffffffffffffffffffffffffffffffffffffffff161415610dfe576040517f08c379a0000000000000000000000000000000000000000000000000000000008152600401610df5906115a9565b60405180910390fd5b336000806101000a81548173ffffffffffffffffffffffffffffffffffffffff021916908373ffffffffffffffffffffffffffffffffffffffff1602179055503460056000828254610e509190611775565b92505081905550426003819055507fe3d4187f6ca4248660cc0ac8b8056515bac4a8132be2eca31d6d0cc170722a7e60008054906101000a900473ffffffffffffffffffffffffffffffffffffffff1634604051610eaf929190611505565b60405180910390a1565b60035481565b60055481565b600660019054906101000a900460ff1681565b60001515600660019054906101000a900460ff16151514610f2e576040517f08c379a0000000000000000000000000000000000000000000000000000000008152600401610f2590611589565b60405180910390fd5b60001515600660009054906101000a900460ff16151514610f84576040517f08c379a0000000000000000000000000000000000000000000000000000000008152600401610f7b90611689565b60405180910390fd5b600160009054906101000a900473ffffffffffffffffffffffffffffffffffffffff1673ffffffffffffffffffffffffffffffffffffffff163373ffffffffffffffffffffffffffffffffffffffff1614611014576040517f08c379a000000000000000000000000000000000000000000000000000000000815260040161100b906116e9565b60405180910390fd5b600073ffffffffffffffffffffffffffffffffffffffff1660008054906101000a900473ffffffffffffffffffffffffffffffffffffffff1673ffffffffffffffffffffffffffffffffffffffff16146110a3576040517f08c379a000000000000000000000000000000000000000000000000000000000815260040161109a90611549565b60405180910390fd5b8060048190555050565b6000600554116110f2576040517f08c379a00000000000000000000000000000000000000000000000000000000081526004016110e990611569565b60405180910390fd5b60011515600660019054906101000a900460ff16151514611148576040517f08c379a000000000000000000000000000000000000000000000000000000000815260040161113f906115e9565b60405180910390fd5b60011515600660009054906101000a900460ff1615151461119e576040517f08c379a0000000000000000000000000000000000000000000000000000000008152600401611195906116a9565b60405180910390fd5b6000600160009054906101000a900473ffffffffffffffffffffffffffffffffffffffff1673ffffffffffffffffffffffffffffffffffffffff166108fc6005549081150290604051600060405180830381858888f19350505050905060011515811515141561123d5760006005819055507f74a82f6926b1d3bf00b3754f94e6c2fe32c735eb771543b06f962720da957c3860405160405180910390a15b50565b60008135905061124f81611c84565b92915050565b60006020828403121561126757600080fd5b600061127584828501611240565b91505092915050565b61128781611813565b82525050565b611296816117cb565b82525050565b6112a5816117dd565b82525050565b60006112b8603683611764565b91506112c382611878565b604082019050919050565b60006112db601983611764565b91506112e6826118c7565b602082019050919050565b60006112fe601883611764565b9150611309826118f0565b602082019050919050565b6000611321602d83611764565b915061132c82611919565b604082019050919050565b6000611344602983611764565b915061134f82611968565b604082019050919050565b6000611367601f83611764565b9150611372826119b7565b602082019050919050565b600061138a602e83611764565b9150611395826119e0565b604082019050919050565b60006113ad602883611764565b91506113b882611a2f565b604082019050919050565b60006113d0603683611764565b91506113db82611a7e565b604082019050919050565b60006113f3602a83611764565b91506113fe82611acd565b604082019050919050565b6000611416601983611764565b915061142182611b1c565b602082019050919050565b6000611439602083611764565b915061144482611b45565b602082019050919050565b600061145c601d83611764565b915061146782611b6e565b602082019050919050565b600061147f602783611764565b915061148a82611b97565b604082019050919050565b60006114a2603b83611764565b91506114ad82611be6565b604082019050919050565b60006114c5603883611764565b91506114d082611c35565b604082019050919050565b6114e481611809565b82525050565b60006020820190506114ff600083018461128d565b92915050565b600060408201905061151a600083018561127e565b61152760208301846114db565b9392505050565b6000602082019050611543600083018461129c565b92915050565b60006020820190508181036000830152611562816112ab565b9050919050565b60006020820190508181036000830152611582816112ce565b9050919050565b600060208201905081810360008301526115a2816112f1565b9050919050565b600060208201905081810360008301526115c281611314565b9050919050565b600060208201905081810360008301526115e281611337565b9050919050565b600060208201905081810360008301526116028161135a565b9050919050565b600060208201905081810360008301526116228161137d565b9050919050565b60006020820190508181036000830152611642816113a0565b9050919050565b60006020820190508181036000830152611662816113c3565b9050919050565b60006020820190508181036000830152611682816113e6565b9050919050565b600060208201905081810360008301526116a281611409565b9050919050565b600060208201905081810360008301526116c28161142c565b9050919050565b600060208201905081810360008301526116e28161144f565b9050919050565b6000602082019050818103600083015261170281611472565b9050919050565b6000602082019050818103600083015261172281611495565b9050919050565b60006020820190508181036000830152611742816114b8565b9050919050565b600060208201905061175e60008301846114db565b92915050565b600082825260208201905092915050565b600061178082611809565b915061178b83611809565b9250827fffffffffffffffffffffffffffffffffffffffffffffffffffffffffffffffff038211156117c0576117bf611849565b5b828201905092915050565b60006117d6826117e9565b9050919050565b60008115159050919050565b600073ffffffffffffffffffffffffffffffffffffffff82169050919050565b6000819050919050565b600061181e82611825565b9050919050565b600061183082611837565b9050919050565b6000611842826117e9565b9050919050565b7f4e487b7100000000000000000000000000000000000000000000000000000000600052601160045260246000fd5b7f56616c6f7220736f20706f64652073657220616c74657261646f206361736f2060008201527f6e616f2074656e686120756d20636f6d707261646f7200000000000000000000602082015250565b7f436f6e747261746f206e616f20706f737375692073616c646f00000000000000600082015250565b7f4f2070726f6475746f206a6120666f6920656e766961646f0000000000000000600082015250565b7f436f6d707261646f72206e616f20706f646520736572206f206d65736d6f207160008201527f7565206f2076656e6465646f7200000000000000000000000000000000000000602082015250565b7f4a612065786973746520756d20636f6d707261646f722070617261206573736560008201527f20636f6e747261746f0000000000000000000000000000000000000000000000602082015250565b7f4f2070726f6475746f2061696e6461206e616f20666f6920656e766961646f00600082015250565b7f4f2076616c6f72207472616e7366657269646f2070726563697361207365722060008201527f6d61696f7220717565207a65726f000000000000000000000000000000000000602082015250565b7f536f6d656e7465206f20636f6d707261646f7220706f64652066617a6572206560008201527f737361206163616f000000000000000000000000000000000000000000000000602082015250565b7f566f636520736f20706f6465207265706f7274617220756d206572726f20333060008201527f2064696173206465706f697320646120636f6d70726100000000000000000000602082015250565b7f53616c646f206465766520736572206d61696f7220717565206f2076616c6f7260008201527f20646f20657363726f7700000000000000000000000000000000000000000000602082015250565b7f4f2070726f6475746f206a6120666f6920726563656269646f00000000000000600082015250565b7f4f2070726f6475746f2061696e6461206e616f20666f6920726563656269646f600082015250565b7f436f6d707261646f72206a6120656e76696f75206f2070726f6475746f000000600082015250565b7f536f6d656e7465206f2076656e6465646f7220706f64652066617a657220657360008201527f7361206163616f00000000000000000000000000000000000000000000000000602082015250565b7f4f2076616c6f72207472616e7366657269646f2070726563697361207365722060008201527f6d61696f7220717565206f2076616c6f7220646f20657363726f770000000000602082015250565b7f4f2076616c6f7220646f2073616c646f207072656369736120736572206d616960008201527f726f20717565206f2076616c6f7220646f20657363726f770000000000000000602082015250565b611c8d81611809565b8114611c9857600080fd5b5056fea26469706673582212201544754d3cf1738c5a61ca5aa09350eb51c52e87ea4fb57bd4d66e70d6e80e0864736f6c63430008040033",
  "linkReferences": {},
  "deployedLinkReferences": {}
}